{
  "_format": "hh-sol-artifact-1",
  "contractName": "HospitalRecords",
  "sourceName": "contracts/HospitalRecords.sol",
  "abi": [
    {
      "anonymous": false,
      "inputs": [
        {
          "indexed": false,
          "internalType": "uint256",
          "name": "recordId",
          "type": "uint256"
        },
        {
          "indexed": false,
          "internalType": "string",
          "name": "status",
          "type": "string"
        },
        {
          "indexed": false,
          "internalType": "uint256",
          "name": "timestamp",
          "type": "uint256"
        },
        {
          "indexed": false,
          "internalType": "string",
          "name": "name",
          "type": "string"
        },
        {
          "indexed": false,
          "internalType": "uint256",
          "name": "age",
          "type": "uint256"
        },
        {
          "indexed": false,
          "internalType": "string",
          "name": "gender",
          "type": "string"
        },
        {
          "indexed": false,
          "internalType": "string",
          "name": "bloodType",
          "type": "string"
        },
        {
          "indexed": false,
          "internalType": "string",
          "name": "allergies",
          "type": "string"
        },
        {
          "indexed": false,
          "internalType": "string",
          "name": "diagnosis",
          "type": "string"
        },
        {
          "indexed": false,
          "internalType": "string",
          "name": "treatment",
          "type": "string"
        }
      ],
      "name": "HospitalRecordStatus",
      "type": "event"
    },
    {
      "inputs": [
        {
          "internalType": "string",
          "name": "_name",
          "type": "string"
        },
        {
          "internalType": "uint256",
          "name": "_age",
          "type": "uint256"
        },
        {
          "internalType": "string",
          "name": "_gender",
          "type": "string"
        },
        {
          "internalType": "string",
          "name": "_bloodType",
          "type": "string"
        },
        {
          "internalType": "string",
          "name": "_allergies",
          "type": "string"
        },
        {
          "internalType": "string",
          "name": "_diagnosis",
          "type": "string"
        },
        {
          "internalType": "string",
          "name": "_treatment",
          "type": "string"
        }
      ],
      "name": "addRecord",
      "outputs": [],
      "stateMutability": "nonpayable",
      "type": "function"
    },
    {
      "inputs": [
        {
          "internalType": "uint256",
          "name": "_recordId",
          "type": "uint256"
        }
      ],
      "name": "deleteRecord",
      "outputs": [],
      "stateMutability": "nonpayable",
      "type": "function"
    },
    {
      "inputs": [
        {
          "internalType": "uint256",
          "name": "_recordId",
          "type": "uint256"
        }
      ],
      "name": "getAge",
      "outputs": [
        {
          "internalType": "uint256",
          "name": "",
          "type": "uint256"
        }
      ],
      "stateMutability": "view",
      "type": "function"
    },
    {
      "inputs": [
        {
          "internalType": "uint256",
          "name": "_recordId",
          "type": "uint256"
        }
      ],
      "name": "getAllergies",
      "outputs": [
        {
          "internalType": "string",
          "name": "",
          "type": "string"
        }
      ],
      "stateMutability": "view",
      "type": "function"
    },
    {
      "inputs": [
        {
          "internalType": "uint256",
          "name": "_recordId",
          "type": "uint256"
        }
      ],
      "name": "getBloodType",
      "outputs": [
        {
          "internalType": "string",
          "name": "",
          "type": "string"
        }
      ],
      "stateMutability": "view",
      "type": "function"
    },
    {
      "inputs": [
        {
          "internalType": "uint256",
          "name": "_recordId",
          "type": "uint256"
        }
      ],
      "name": "getDeleted",
      "outputs": [
        {
          "internalType": "bool",
          "name": "",
          "type": "bool"
        }
      ],
      "stateMutability": "view",
      "type": "function"
    },
    {
      "inputs": [
        {
          "internalType": "uint256",
          "name": "_recordId",
          "type": "uint256"
        }
      ],
      "name": "getDiagnosis",
      "outputs": [
        {
          "internalType": "string",
          "name": "",
          "type": "string"
        }
      ],
      "stateMutability": "view",
      "type": "function"
    },
    {
      "inputs": [
        {
          "internalType": "uint256",
          "name": "_recordId",
          "type": "uint256"
        }
      ],
      "name": "getGender",
      "outputs": [
        {
          "internalType": "string",
          "name": "",
          "type": "string"
        }
      ],
      "stateMutability": "view",
      "type": "function"
    },
    {
      "inputs": [
        {
          "internalType": "uint256",
          "name": "_recordId",
          "type": "uint256"
        }
      ],
      "name": "getName",
      "outputs": [
        {
          "internalType": "string",
          "name": "",
          "type": "string"
        }
      ],
      "stateMutability": "view",
      "type": "function"
    },
    {
      "inputs": [],
      "name": "getRecord",
      "outputs": [
        {
          "components": [
            {
              "internalType": "uint256",
              "name": "recordId",
              "type": "uint256"
            },
            {
              "internalType": "uint256",
              "name": "timestamp",
              "type": "uint256"
            },
            {
              "internalType": "string",
              "name": "name",
              "type": "string"
            },
            {
              "internalType": "uint256",
              "name": "age",
              "type": "uint256"
            },
            {
              "internalType": "string",
              "name": "gender",
              "type": "string"
            },
            {
              "internalType": "string",
              "name": "bloodType",
              "type": "string"
            },
            {
              "internalType": "string",
              "name": "allergies",
              "type": "string"
            },
            {
              "internalType": "string",
              "name": "diagnosis",
              "type": "string"
            },
            {
              "internalType": "string",
              "name": "treatment",
              "type": "string"
            }
          ],
          "internalType": "struct HospitalRecords.Record[]",
          "name": "",
          "type": "tuple[]"
        }
      ],
      "stateMutability": "view",
      "type": "function"
    },
    {
      "inputs": [],
      "name": "getRecordNumber",
      "outputs": [
        {
          "internalType": "uint256",
          "name": "",
          "type": "uint256"
        }
      ],
      "stateMutability": "view",
      "type": "function"
    },
    {
      "inputs": [
        {
          "internalType": "uint256",
          "name": "_recordId",
          "type": "uint256"
        }
      ],
      "name": "getTimeStamp",
      "outputs": [
        {
          "internalType": "uint256",
          "name": "",
          "type": "uint256"
        }
      ],
      "stateMutability": "view",
      "type": "function"
    },
    {
      "inputs": [
        {
          "internalType": "uint256",
          "name": "_recordId",
          "type": "uint256"
        }
      ],
      "name": "getTreatment",
      "outputs": [
        {
          "internalType": "string",
          "name": "",
          "type": "string"
        }
      ],
      "stateMutability": "view",
      "type": "function"
    },
    {
      "inputs": [
        {
          "internalType": "uint256",
          "name": "",
          "type": "uint256"
        }
      ],
      "name": "isDeleted",
      "outputs": [
        {
          "internalType": "bool",
          "name": "",
          "type": "bool"
        }
      ],
      "stateMutability": "view",
      "type": "function"
    },
    {
      "inputs": [],
      "name": "recordNumber",
      "outputs": [
        {
          "internalType": "uint256",
          "name": "",
          "type": "uint256"
        }
      ],
      "stateMutability": "view",
      "type": "function"
    },
    {
      "inputs": [
        {
          "internalType": "uint256",
          "name": "",
          "type": "uint256"
        }
      ],
      "name": "records",
      "outputs": [
        {
          "internalType": "uint256",
          "name": "recordId",
          "type": "uint256"
        },
        {
          "internalType": "uint256",
          "name": "timestamp",
          "type": "uint256"
        },
        {
          "internalType": "string",
          "name": "name",
          "type": "string"
        },
        {
          "internalType": "uint256",
          "name": "age",
          "type": "uint256"
        },
        {
          "internalType": "string",
          "name": "gender",
          "type": "string"
        },
        {
          "internalType": "string",
          "name": "bloodType",
          "type": "string"
        },
        {
          "internalType": "string",
          "name": "allergies",
          "type": "string"
        },
        {
          "internalType": "string",
          "name": "diagnosis",
          "type": "string"
        },
        {
          "internalType": "string",
          "name": "treatment",
          "type": "string"
        }
      ],
      "stateMutability": "view",
      "type": "function"
    },
    {
      "inputs": [
        {
          "internalType": "uint256",
          "name": "_recordId",
          "type": "uint256"
        },
        {
          "internalType": "string",
          "name": "_name",
          "type": "string"
        },
        {
          "internalType": "uint256",
          "name": "_age",
          "type": "uint256"
        },
        {
          "internalType": "string",
          "name": "_gender",
          "type": "string"
        },
        {
          "internalType": "string",
          "name": "_bloodType",
          "type": "string"
        },
        {
          "internalType": "string",
          "name": "_allergies",
          "type": "string"
        },
        {
          "internalType": "string",
          "name": "_diagnosis",
          "type": "string"
        },
        {
          "internalType": "string",
          "name": "_treatment",
          "type": "string"
        }
      ],
      "name": "updateRecord",
      "outputs": [],
      "stateMutability": "nonpayable",
      "type": "function"
    }
  ],
  "bytecode": "0x60806040526000805534801561001457600080fd5b506127aa806100246000396000f3fe608060405234801561001057600080fd5b506004361061010b5760003560e01c806394182c36116100a2578063b810793e11610071578063b810793e1461030c578063e06d2eb51461033c578063f18ad6fb1461036c578063f26c5f5f1461038a578063feddb786146103ba5761010b565b806394182c361461025e57806397f6c84c1461028e578063ab596946146102be578063b137d329146102ee5761010b565b806334461067116100de57806334461067146101965780636747f391146101ce5780636b8ff574146101fe57806373c440db1461022e5761010b565b8063061f9811146101105780630e37008a1461012c5780631ba15dc21461015c57806333c3f9a41461017a575b600080fd5b61012a6004803603810190610125919061179a565b6103d6565b005b6101466004803603810190610141919061179a565b6104f5565b60405161015391906117d6565b60405180910390f35b610164610576565b60405161017191906117d6565b60405180910390f35b610194600480360381019061018f9190611937565b61057c565b005b6101b060048036038101906101ab919061179a565b610673565b6040516101c599989796959493929190611b00565b60405180910390f35b6101e860048036038101906101e3919061179a565b6109f1565b6040516101f591906117d6565b60405180910390f35b6102186004803603810190610213919061179a565b610a72565b6040516102259190611bb7565b60405180910390f35b6102486004803603810190610243919061179a565b610b7b565b6040516102559190611bb7565b60405180910390f35b6102786004803603810190610273919061179a565b610c84565b6040516102859190611bf4565b60405180910390f35b6102a860048036038101906102a3919061179a565b610ca4565b6040516102b59190611bb7565b60405180910390f35b6102d860048036038101906102d3919061179a565b610dad565b6040516102e59190611bf4565b60405180910390f35b6102f6610dd7565b60405161030391906117d6565b60405180910390f35b6103266004803603810190610321919061179a565b610de0565b6040516103339190611bb7565b60405180910390f35b6103566004803603810190610351919061179a565b610ee9565b6040516103639190611bb7565b60405180910390f35b610374610ff2565b6040516103819190611e12565b60405180910390f35b6103a4600480360381019061039f919061179a565b6114bc565b6040516103b19190611bb7565b60405180910390f35b6103d460048036038101906103cf9190611e34565b6115c5565b005b6001600082815260200190815260200160002060009054906101000a900460ff1615610437576040517f08c379a000000000000000000000000000000000000000000000000000000000815260040161042e90611fde565b60405180910390fd5b6000600260008381526020019081526020016000209050600180600084815260200190815260200160002060006101000a81548160ff02191690831515021790555060008081548092919061048b9061202d565b91905055507f94b36937d2667849788161d77226ec2726a73731521ece1a01d84f698f8cd7a181600001544283600201846003015485600401866005018760060188600701896008016040516104e99998979695949392919061219b565b60405180910390a15050565b60006001600083815260200190815260200160002060009054906101000a900460ff1615610558576040517f08c379a000000000000000000000000000000000000000000000000000000000815260040161054f90611fde565b60405180910390fd5b60026000838152602001908152602001600020600301549050919050565b60005481565b600060026000805481526020019081526020016000209050878160020190816105a591906123fd565b50868160030181905550858160040190816105c091906123fd565b50848160050190816105d291906123fd565b50838160060190816105e491906123fd565b50828160070190816105f691906123fd565b508181600801908161060891906123fd565b5060008081548092919061061b906124cf565b91905055507f94b36937d2667849788161d77226ec2726a73731521ece1a01d84f698f8cd7a1600054428a8a8a8a8a8a8a60405161066199989796959493929190612563565b60405180910390a15050505050505050565b60026020528060005260406000206000915090508060000154908060010154908060020180546106a2906120d1565b80601f01602080910402602001604051908101604052809291908181526020018280546106ce906120d1565b801561071b5780601f106106f05761010080835404028352916020019161071b565b820191906000526020600020905b8154815290600101906020018083116106fe57829003601f168201915b505050505090806003015490806004018054610736906120d1565b80601f0160208091040260200160405190810160405280929190818152602001828054610762906120d1565b80156107af5780601f10610784576101008083540402835291602001916107af565b820191906000526020600020905b81548152906001019060200180831161079257829003601f168201915b5050505050908060050180546107c4906120d1565b80601f01602080910402602001604051908101604052809291908181526020018280546107f0906120d1565b801561083d5780601f106108125761010080835404028352916020019161083d565b820191906000526020600020905b81548152906001019060200180831161082057829003601f168201915b505050505090806006018054610852906120d1565b80601f016020809104026020016040519081016040528092919081815260200182805461087e906120d1565b80156108cb5780601f106108a0576101008083540402835291602001916108cb565b820191906000526020600020905b8154815290600101906020018083116108ae57829003601f168201915b5050505050908060070180546108e0906120d1565b80601f016020809104026020016040519081016040528092919081815260200182805461090c906120d1565b80156109595780601f1061092e57610100808354040283529160200191610959565b820191906000526020600020905b81548152906001019060200180831161093c57829003601f168201915b50505050509080600801805461096e906120d1565b80601f016020809104026020016040519081016040528092919081815260200182805461099a906120d1565b80156109e75780601f106109bc576101008083540402835291602001916109e7565b820191906000526020600020905b8154815290600101906020018083116109ca57829003601f168201915b5050505050905089565b60006001600083815260200190815260200160002060009054906101000a900460ff1615610a54576040517f08c379a0000000000000000000000000000000000000000000000000000000008152600401610a4b90611fde565b60405180910390fd5b60026000838152602001908152602001600020600101549050919050565b60606001600083815260200190815260200160002060009054906101000a900460ff1615610ad5576040517f08c379a0000000000000000000000000000000000000000000000000000000008152600401610acc90611fde565b60405180910390fd5b600260008381526020019081526020016000206002018054610af6906120d1565b80601f0160208091040260200160405190810160405280929190818152602001828054610b22906120d1565b8015610b6f5780601f10610b4457610100808354040283529160200191610b6f565b820191906000526020600020905b815481529060010190602001808311610b5257829003601f168201915b50505050509050919050565b60606001600083815260200190815260200160002060009054906101000a900460ff1615610bde576040517f08c379a0000000000000000000000000000000000000000000000000000000008152600401610bd590611fde565b60405180910390fd5b600260008381526020019081526020016000206007018054610bff906120d1565b80601f0160208091040260200160405190810160405280929190818152602001828054610c2b906120d1565b8015610c785780601f10610c4d57610100808354040283529160200191610c78565b820191906000526020600020905b815481529060010190602001808311610c5b57829003601f168201915b50505050509050919050565b60016020528060005260406000206000915054906101000a900460ff1681565b60606001600083815260200190815260200160002060009054906101000a900460ff1615610d07576040517f08c379a0000000000000000000000000000000000000000000000000000000008152600401610cfe90611fde565b60405180910390fd5b600260008381526020019081526020016000206006018054610d28906120d1565b80601f0160208091040260200160405190810160405280929190818152602001828054610d54906120d1565b8015610da15780601f10610d7657610100808354040283529160200191610da1565b820191906000526020600020905b815481529060010190602001808311610d8457829003601f168201915b50505050509050919050565b60006001600083815260200190815260200160002060009054906101000a900460ff169050919050565b60008054905090565b60606001600083815260200190815260200160002060009054906101000a900460ff1615610e43576040517f08c379a0000000000000000000000000000000000000000000000000000000008152600401610e3a90611fde565b60405180910390fd5b600260008381526020019081526020016000206005018054610e64906120d1565b80601f0160208091040260200160405190810160405280929190818152602001828054610e90906120d1565b8015610edd5780601f10610eb257610100808354040283529160200191610edd565b820191906000526020600020905b815481529060010190602001808311610ec057829003601f168201915b50505050509050919050565b60606001600083815260200190815260200160002060009054906101000a900460ff1615610f4c576040517f08c379a0000000000000000000000000000000000000000000000000000000008152600401610f4390611fde565b60405180910390fd5b600260008381526020019081526020016000206004018054610f6d906120d1565b80601f0160208091040260200160405190810160405280929190818152602001828054610f99906120d1565b8015610fe65780601f10610fbb57610100808354040283529160200191610fe6565b820191906000526020600020905b815481529060010190602001808311610fc957829003601f168201915b50505050509050919050565b60606000805b600054811015611043576001600082815260200190815260200160002060009054906101000a900460ff16611036578180611032906124cf565b9250505b8080600101915050610ff8565b5060008167ffffffffffffffff8111156110605761105f61180c565b5b60405190808252806020026020018201604052801561109957816020015b611086611704565b81526020019060019003908161107e5790505b5090506000805b6000548110156114b2576001600082815260200190815260200160002060009054906101000a900460ff166114a55760026000828152602001908152602001600020604051806101200160405290816000820154815260200160018201548152602001600282018054611112906120d1565b80601f016020809104026020016040519081016040528092919081815260200182805461113e906120d1565b801561118b5780601f106111605761010080835404028352916020019161118b565b820191906000526020600020905b81548152906001019060200180831161116e57829003601f168201915b50505050508152602001600382015481526020016004820180546111ae906120d1565b80601f01602080910402602001604051908101604052809291908181526020018280546111da906120d1565b80156112275780601f106111fc57610100808354040283529160200191611227565b820191906000526020600020905b81548152906001019060200180831161120a57829003601f168201915b50505050508152602001600582018054611240906120d1565b80601f016020809104026020016040519081016040528092919081815260200182805461126c906120d1565b80156112b95780601f1061128e576101008083540402835291602001916112b9565b820191906000526020600020905b81548152906001019060200180831161129c57829003601f168201915b505050505081526020016006820180546112d2906120d1565b80601f01602080910402602001604051908101604052809291908181526020018280546112fe906120d1565b801561134b5780601f106113205761010080835404028352916020019161134b565b820191906000526020600020905b81548152906001019060200180831161132e57829003601f168201915b50505050508152602001600782018054611364906120d1565b80601f0160208091040260200160405190810160405280929190818152602001828054611390906120d1565b80156113dd5780601f106113b2576101008083540402835291602001916113dd565b820191906000526020600020905b8154815290600101906020018083116113c057829003601f168201915b505050505081526020016008820180546113f6906120d1565b80601f0160208091040260200160405190810160405280929190818152602001828054611422906120d1565b801561146f5780601f106114445761010080835404028352916020019161146f565b820191906000526020600020905b81548152906001019060200180831161145257829003601f168201915b50505050508152505083838151811061148b5761148a61262e565b5b602002602001018190525081806114a1906124cf565b9250505b80806001019150506110a0565b5081935050505090565b60606001600083815260200190815260200160002060009054906101000a900460ff161561151f576040517f08c379a000000000000000000000000000000000000000000000000000000000815260040161151690611fde565b60405180910390fd5b600260008381526020019081526020016000206008018054611540906120d1565b80601f016020809104026020016040519081016040528092919081815260200182805461156c906120d1565b80156115b95780601f1061158e576101008083540402835291602001916115b9565b820191906000526020600020905b81548152906001019060200180831161159c57829003601f168201915b50505050509050919050565b6001600089815260200190815260200160002060009054906101000a900460ff1615611626576040517f08c379a000000000000000000000000000000000000000000000000000000000815260040161161d90611fde565b60405180910390fd5b6000600260008a815260200190815260200160002090508781600201908161164e91906123fd565b508681600301819055508581600401908161166991906123fd565b508481600501908161167b91906123fd565b508381600601908161168d91906123fd565b508281600701908161169f91906123fd565b50818160080190816116b191906123fd565b507f94b36937d2667849788161d77226ec2726a73731521ece1a01d84f698f8cd7a189428a8a8a8a8a8a8a6040516116f1999897969594939291906126a9565b60405180910390a1505050505050505050565b6040518061012001604052806000815260200160008152602001606081526020016000815260200160608152602001606081526020016060815260200160608152602001606081525090565b6000604051905090565b600080fd5b600080fd5b6000819050919050565b61177781611764565b811461178257600080fd5b50565b6000813590506117948161176e565b92915050565b6000602082840312156117b0576117af61175a565b5b60006117be84828501611785565b91505092915050565b6117d081611764565b82525050565b60006020820190506117eb60008301846117c7565b92915050565b600080fd5b600080fd5b6000601f19601f8301169050919050565b7f4e487b7100000000000000000000000000000000000000000000000000000000600052604160045260246000fd5b611844826117fb565b810181811067ffffffffffffffff821117156118635761186261180c565b5b80604052505050565b6000611876611750565b9050611882828261183b565b919050565b600067ffffffffffffffff8211156118a2576118a161180c565b5b6118ab826117fb565b9050602081019050919050565b82818337600083830152505050565b60006118da6118d584611887565b61186c565b9050828152602081018484840111156118f6576118f56117f6565b5b6119018482856118b8565b509392505050565b600082601f83011261191e5761191d6117f1565b5b813561192e8482602086016118c7565b91505092915050565b600080600080600080600060e0888a0312156119565761195561175a565b5b600088013567ffffffffffffffff8111156119745761197361175f565b5b6119808a828b01611909565b97505060206119918a828b01611785565b965050604088013567ffffffffffffffff8111156119b2576119b161175f565b5b6119be8a828b01611909565b955050606088013567ffffffffffffffff8111156119df576119de61175f565b5b6119eb8a828b01611909565b945050608088013567ffffffffffffffff811115611a0c57611a0b61175f565b5b611a188a828b01611909565b93505060a088013567ffffffffffffffff811115611a3957611a3861175f565b5b611a458a828b01611909565b92505060c088013567ffffffffffffffff811115611a6657611a6561175f565b5b611a728a828b01611909565b91505092959891949750929550565b600081519050919050565b600082825260208201905092915050565b60005b83811015611abb578082015181840152602081019050611aa0565b60008484015250505050565b6000611ad282611a81565b611adc8185611a8c565b9350611aec818560208601611a9d565b611af5816117fb565b840191505092915050565b600061012082019050611b16600083018c6117c7565b611b23602083018b6117c7565b8181036040830152611b35818a611ac7565b9050611b4460608301896117c7565b8181036080830152611b568188611ac7565b905081810360a0830152611b6a8187611ac7565b905081810360c0830152611b7e8186611ac7565b905081810360e0830152611b928185611ac7565b9050818103610100830152611ba78184611ac7565b90509a9950505050505050505050565b60006020820190508181036000830152611bd18184611ac7565b905092915050565b60008115159050919050565b611bee81611bd9565b82525050565b6000602082019050611c096000830184611be5565b92915050565b600081519050919050565b600082825260208201905092915050565b6000819050602082019050919050565b611c4481611764565b82525050565b600082825260208201905092915050565b6000611c6682611a81565b611c708185611c4a565b9350611c80818560208601611a9d565b611c89816117fb565b840191505092915050565b600061012083016000830151611cad6000860182611c3b565b506020830151611cc06020860182611c3b565b5060408301518482036040860152611cd88282611c5b565b9150506060830151611ced6060860182611c3b565b5060808301518482036080860152611d058282611c5b565b91505060a083015184820360a0860152611d1f8282611c5b565b91505060c083015184820360c0860152611d398282611c5b565b91505060e083015184820360e0860152611d538282611c5b565b915050610100830151848203610100860152611d6f8282611c5b565b9150508091505092915050565b6000611d888383611c94565b905092915050565b6000602082019050919050565b6000611da882611c0f565b611db28185611c1a565b935083602082028501611dc485611c2b565b8060005b85811015611e005784840389528151611de18582611d7c565b9450611dec83611d90565b925060208a01995050600181019050611dc8565b50829750879550505050505092915050565b60006020820190508181036000830152611e2c8184611d9d565b905092915050565b600080600080600080600080610100898b031215611e5557611e5461175a565b5b6000611e638b828c01611785565b985050602089013567ffffffffffffffff811115611e8457611e8361175f565b5b611e908b828c01611909565b9750506040611ea18b828c01611785565b965050606089013567ffffffffffffffff811115611ec257611ec161175f565b5b611ece8b828c01611909565b955050608089013567ffffffffffffffff811115611eef57611eee61175f565b5b611efb8b828c01611909565b94505060a089013567ffffffffffffffff811115611f1c57611f1b61175f565b5b611f288b828c01611909565b93505060c089013567ffffffffffffffff811115611f4957611f4861175f565b5b611f558b828c01611909565b92505060e089013567ffffffffffffffff811115611f7657611f7561175f565b5b611f828b828c01611909565b9150509295985092959890939650565b7f546865207265636f726420697320616c72656164792064656c65746564000000600082015250565b6000611fc8601d83611a8c565b9150611fd382611f92565b602082019050919050565b60006020820190508181036000830152611ff781611fbb565b9050919050565b7f4e487b7100000000000000000000000000000000000000000000000000000000600052601160045260246000fd5b600061203882611764565b91506000820361204b5761204a611ffe565b5b600182039050919050565b7f5265636f72642064656c65746564000000000000000000000000000000000000600082015250565b600061208c600e83611a8c565b915061209782612056565b602082019050919050565b7f4e487b7100000000000000000000000000000000000000000000000000000000600052602260045260246000fd5b600060028204905060018216806120e957607f821691505b6020821081036120fc576120fb6120a2565b5b50919050565b60008190508160005260206000209050919050565b60008154612124816120d1565b61212e8186611a8c565b94506001821660008114612149576001811461215f57612192565b60ff198316865281151560200286019350612192565b61216885612102565b60005b8381101561218a5781548189015260018201915060208101905061216b565b808801955050505b50505092915050565b6000610140820190506121b1600083018c6117c7565b81810360208301526121c28161207f565b90506121d1604083018b6117c7565b81810360608301526121e3818a612117565b90506121f260808301896117c7565b81810360a08301526122048188612117565b905081810360c08301526122188187612117565b905081810360e083015261222c8186612117565b90508181036101008301526122418185612117565b90508181036101208301526122568184612117565b90509a9950505050505050505050565b60006020601f8301049050919050565b600082821b905092915050565b6000600883026122b37fffffffffffffffffffffffffffffffffffffffffffffffffffffffffffffffff82612276565b6122bd8683612276565b95508019841693508086168417925050509392505050565b6000819050919050565b60006122fa6122f56122f084611764565b6122d5565b611764565b9050919050565b6000819050919050565b612314836122df565b61232861232082612301565b848454612283565b825550505050565b600090565b61233d612330565b61234881848461230b565b505050565b5b8181101561236c57612361600082612335565b60018101905061234e565b5050565b601f8211156123b15761238281612102565b61238b84612266565b8101602085101561239a578190505b6123ae6123a685612266565b83018261234d565b50505b505050565b600082821c905092915050565b60006123d4600019846008026123b6565b1980831691505092915050565b60006123ed83836123c3565b9150826002028217905092915050565b61240682611a81565b67ffffffffffffffff81111561241f5761241e61180c565b5b61242982546120d1565b612434828285612370565b600060209050601f8311600181146124675760008415612455578287015190505b61245f85826123e1565b8655506124c7565b601f19841661247586612102565b60005b8281101561249d57848901518255600182019150602085019450602081019050612478565b868310156124ba57848901516124b6601f8916826123c3565b8355505b6001600288020188555050505b505050505050565b60006124da82611764565b91507fffffffffffffffffffffffffffffffffffffffffffffffffffffffffffffffff820361250c5761250b611ffe565b5b600182019050919050565b7f5265636f72642063726561746564000000000000000000000000000000000000600082015250565b600061254d600e83611a8c565b915061255882612517565b602082019050919050565b600061014082019050612579600083018c6117c7565b818103602083015261258a81612540565b9050612599604083018b6117c7565b81810360608301526125ab818a611ac7565b90506125ba60808301896117c7565b81810360a08301526125cc8188611ac7565b905081810360c08301526125e08187611ac7565b905081810360e08301526125f48186611ac7565b90508181036101008301526126098185611ac7565b905081810361012083015261261e8184611ac7565b90509a9950505050505050505050565b7f4e487b7100000000000000000000000000000000000000000000000000000000600052603260045260246000fd5b7f5265636f72642075706461746564000000000000000000000000000000000000600082015250565b6000612693600e83611a8c565b915061269e8261265d565b602082019050919050565b6000610140820190506126bf600083018c6117c7565b81810360208301526126d081612686565b90506126df604083018b6117c7565b81810360608301526126f1818a611ac7565b905061270060808301896117c7565b81810360a08301526127128188611ac7565b905081810360c08301526127268187611ac7565b905081810360e083015261273a8186611ac7565b905081810361010083015261274f8185611ac7565b90508181036101208301526127648184611ac7565b90509a995050505050505050505056fea26469706673582212202a06bedff0b2d24c12ce8c611042c2d4c2f8b8ff359c2586d9090ac8c9d30b8064736f6c63430008180033",
  "linkReferences": {},
  "deployedLinkReferences": {}
}